:020000040800F2
:10000000B00400209D010008231100087D100008A5
:1000100021110008A90200083514000800000000A2
:10002000000000000000000000000000291100088E
:100030003503000800000000271100082B110008FC
:10004000B7010008B7010008B7010008B7010008B0
:10005000B7010008B7010008B7010008B7010008A0
:10006000B7010008B7010008B7010008B701000890
:10007000B7010008B7010008B7010008B701000880
:10008000B7010008B7010008B7010008B701000870
:10009000B7010008B7010008B7010008B701000860
:1000A000B7010008B7010008B7010008B701000850
:1000B000B7010008B7010008B7010008B701000840
:1000C000B7010008B7010008B7010008B701000830
:1000D000B701000829140008B7010008B70100089B
:1000E000B7010008B7010008B7010008B701000810
:1000F000B7010008B7010008B7010008B701000800
:10010000B7010008B7010008B7010008B7010008EF
:10011000B7010008B7010008B7010008B7010008DF
:10012000B7010008B7010008AD020008B7010008D8
:10013000B7010008B7010008B7010008B7010008BF
:10014000B7010008B7010008B7010008B7010008AF
:10015000B7010008B7010008B7010008B70100089F
:10016000B7010008B7010008B7010008B70100088F
:10017000B7010008B7010008B7010008000000003F
:10018000B7010008B7010008DFF80CD000F07AF8DA
:100190000048004775140008B00400200648804756
:1001A00006480047FEE7FEE7FEE7FEE7FEE7FEE75C
:1001B000FEE7FEE7FEE7FEE7BD1100088901000843
:1001C0002DE9F05F0546002092469B46884606468C
:1001D000814640241BE0284641464746224600F01F
:1001E00041F853465A46C01A914110D31146184659
:1001F000224600F028F82D1A67EB01084F462246E8
:100200000120002100F01FF817EB00094E41201ECD
:10021000A4F10104DFDC484631462A464346BDE8E6
:10022000F09FD2B201E000F8012B491EFBD27047CB
:100230000022F6E710B513460A4604461946FFF7B2
:10024000F0FF204610BD202A04DB203A00FA02F11C
:10025000002070479140C2F1200320FA03F31943B4
:1002600090407047202A04DB203A21FA02F0002156
:10027000704721FA02F3D040C2F1200291400843B6
:1002800019467047064C074D06E0E06840F0010350
:1002900094E8070098471034AC42F6D3FFF778FF94
:1002A000AC140008CC140008FEE70000014800F080
:1002B00055B800005000002001681823CAB2103A57
:1002C000B2FBF3F2054B6FF30901032A9B5CC36594
:1002D00000D9091D81650846704700008A1400088E
:1002E00010B5014600208B698A6A4FF0C07453B183
:1002F000B3F5005F15D072B1012A0CD0022A0AD0E2
:10030000032A09D104E01AB1012A06D0022A03D136
:10031000C96AC90100D5012010BDC96AA142FAD03D
:1003200010BD002AF7D0012AF2D0022AF3D0032A06
:10033000F3D010BD7047704790F83510022903D0F4
:100340008021416501207047052180F83510006843
:10035000016821F001010160002070472DE9F84398
:1003600004464FF00009CDF8009063484FF4165151
:10037000A56D0068B0FBF1F72E6894F85C100820BA
:1003800000FA01F131420FD021680A6852070BD5FB
:100390000A6822F004020A6094F85C108840A860A1
:1003A000606D40F00100606594F85C104FF001084A
:1003B00008FA01F0304208D021684969090604D5DD
:1003C000A860606D40F00200606594F85C10042045
:1003D0008840304208D021680968890704D5A860A0
:1003E000606D40F00400606594F85C101020884057
:1003F000304218D021680968090714D5A860206820
:100400000168490304D50068000308D5A16C07E022
:100410000168C90503D4016821F008010160216C5D
:1004200009B12046884794F85C102020884030426B
:1004300031D021680968C9062DD5A86094F8350027
:1004400005282068016806D0490347D500680003E5
:100450001DD4616C1CE021F0160101602068416927
:1004600021F080014161206C08B9A06C20B12068A6
:10047000016821F00801016094F85C103F20884079
:10048000A86084F8349084F83580216D1FE0E16B1A
:1004900009B120468847606D00282BD0606DC007E9
:1004A00014D0052084F835002068016821F001018E
:1004B00001600098401C0090B84203D82068006892
:1004C000C007F6D184F8349084F83580E16C0029B7
:1004D00010D001B02046BDE8F04308470168C905C7
:1004E000D5D4016821F01001016084F8349084F8BB
:1004F0003580CCE7BDE8F8830C0000202DE9F04101
:10050000044600F041F906465CB1002584F83450F9
:10051000022084F835002068016821F001010160A3
:100520000DE00120BDE8F08100F02EF9801B0528C8
:1005300005D920206065032084F83500F2E72068A3
:100540000068C007F0D12268116820480140D4E952
:1005500001031843D4E9033633431843636918434E
:10056000A3691843E3691843236A18430843616A7F
:10057000042903D1D4E90B13194308431060206800
:100580004069666A20F0070130460E4301270428BF
:100590000CD1A06A0643E06A40B12046FFF7A0FEF6
:1005A00020B14020606584F83570BAE72068466164
:1005B0002046FFF781FE94F85C203F219140816046
:1005C000656584F835700020ACE700003F8010F0CE
:1005D0002DE9F84F00224FF0010803254FF00F0ED0
:1005E0000B6808FA02F42340A3426ED14E68012E34
:1005F00005D0022E03D0112E01D0122E12D1866802
:100600004FEA420C05FA0CF7BE43CF6807FA0CF725
:10061000374387604668A6430C79C4F300149440BE
:1006200034434460C668570005FA07FC8C6826EA24
:100630000C06BC403443C4604C68022C01D0122C20
:1006400013D1D40800EB8404A346D4F820905407B7
:100650004FEAD46A0EFA0AF629EA06090E6906FA82
:100660000AF646EA0906CBF8206006680C7926EA05
:100670000C0604F00304BC40344304604C68E400FE
:1006800065D5364C266846F480462660246822F0FC
:10069000030604F480440094314C3444A446D4F856
:1006A00008489607370F0EFA07F6B4432D4EB042AE
:1006B00001D1002624E02C4EB04201D101261FE0DA
:1006C0002A4EB04202D102261AE040E0284EB04243
:1006D00001D1032614E0274EB04201D104260FE0D9
:1006E000254EB04201D105260AE0244EB04201D188
:1006F000062605E0224EB04201D1072600E008267A
:10070000BE402643CCF808681E4E34684F689C43B0
:10071000FF0300D51C4334601A4C241D26684F6823
:100720009E43BF0300D51E432660164E083634682C
:100730004F689C43FF0200D51C433460114E0C36B9
:1007400034684F689C43BF0200D51C433460521C80
:10075000102AFFF445AFBDE8F88F0000443802408E
:100760000030014000000240000402400008024046
:10077000000C024000100240001402400018024029
:10078000001C0240003C01400148806870470000A6
:10079000000000200248816802781144816070479F
:1007A000000000200B4810B5016841F400710160A1
:1007B000016841F480610160016841F48071016069
:1007C000032000F06FF8002000F006F800F024F895
:1007D000002010BD003C024070B50D4D04464FF4A2
:1007E0007A712878B1FBF0F00A490968B1FBF0F0A2
:1007F00000F018FB48B9102C07D200222146501EE9
:1008000000F030F800206C6070BD012070BD000069
:10081000000000200C0000200A4808B5016841F4DF
:1008200080410160006800F4804000900548001F8E
:10083000016841F080510160006800F08050009034
:1008400008BD000044380240002809DB00F01F0208
:10085000012191404009800000F1E020C0F8001122
:1008600070470000F0B40E4B1B680C46C3F3022324
:10087000C3F10705042D00D90425191D072901D24C
:10088000002300E0DB1E012606FA05F1491E214087
:1008900099409E40761E16403143F0BC00F0CBBD1F
:1008A0000CED00E0064900F0070208684FF6FF0370
:1008B000184040EA0220034A1043086070470000D5
:1008C0000CED00E00000FA05704700002DE9F0474C
:1008D0000E46050065D0DFF81481D8F80000F7B2A5
:1008E00000F00F00B04207D288F80070D8F800007E
:1008F00000F00F00B04254D128683D4C810712D55A
:10090000400703D5206840F4E050206028780007B5
:1009100003D5206840F4604020602068A96820F07A
:10092000F000084320602878C0072DD0304968685F
:100930000839012812D0022813D0032811D00968E1
:10094000890700292DDA216821F003010143216084
:10095000FFF71AFF814641F2883A0EE009688903E1
:10096000EFE709688901ECE7FFF70EFFA0EB09014B
:10097000514502D90320BDE8F0872068696800F07E
:100980000C00B0EB810FEFD1D8F80010404601F019
:100990000F01B14207D90770006800F00F00B042A4
:1009A00001D00120E7E72878400705D52068E968ED
:1009B00020F4E050084320602878000706D520681E
:1009C000296920F4604040EAC100206000F03EF850
:1009D0002168084AC1F30311515CC8400649086008
:1009E00006480068FFF7F8FE0020C4E7003C02401C
:1009F00008380240921400080C0000200400002077
:100A000001490120C8647047000047420448054975
:100A100000680968044AC1F38221515CC8407047EC
:100A20000C00002008380240A214000804480549C0
:100A300000680968044AC1F34231515CC8407047FC
:100A40000C00002008380240A2140008154810B518
:100A5000006810F00C02144813D04110042A0FD083
:100A6000082A0ED10F4C241F2268236802F03F028F
:100A70005B0207D52068C0F38810A0FB010106E0E7
:100A8000084610BD2168C1F38811A1FB00010023B5
:100A9000FFF796FB2168C1F30141491C4900B0FBF7
:100AA000F1F010BD083802400024F400054810B5EC
:100AB0000068000605D5FFF707FF02498020891C62
:100AC000087010BD0C3802402DE9F84F04006ED0BC
:100AD0002078DFF83C93C007A9F104054AD009F15A
:100AE00004000168C1F38101012908D00068C0F346
:100AF000810002280AD1D9F80000400206D52868F2
:100B0000800337D560680028E1D033E06068B0F535
:100B1000803F10D0B0F5A02F286810D020F480308E
:100B20002860286820F4802028606068A8B1FFF75A
:100B30002BFE06460DE0286840F48030F4E740F4D0
:100B400080202860F7E700BFFFF71EFE801B6428A7
:100B500073D828688003F7D50CE0FFF715FE06462A
:100B600005E000BFFFF710FE801B6428F0D828685E
:100B70008003F7D42078DFF89C8280074FF0000ACA
:100B80003ED5A348001D016811F00C0F08D0006885
:100B9000C0F3810002280BD1D9F80000400207D42D
:100BA0002868800716D5E068012800D112E02BE103
:100BB000E068B8B10120C8F80000FFF7E5FD06467F
:100BC00005E000BFFFF7E0FD801B0228C0D82868C1
:100BD0008007F7D52868216920F0F80040EAC100B5
:100BE00028600DE0C8F800A0FFF7CEFD064604E03F
:100BF000FFF7CAFD801B02281FD828688007F7D49A
:100C00002078000722D5824E83486169703671B121
:100C100001210160FFF7B8FD074604E0FFF7B4FDCE
:100C2000C01B022809D830688007F7D50EE0C0F84D
:100C300000A0FFF7A9FD074605E082E0FFF7A4FD4D
:100C4000C01B02287DD830688007F7D42078400781
:100C500068D5DFF8BCB100270BF13C0BDBF80000D6
:100C6000C0000BD4DBF8001041F08051CBF800102D
:100C7000DBF80000012700F080500090674E3068DC
:100C8000C00510D4306840F480703060FFF77CFD00
:100C9000009005E0FFF778FD0099401A022850D82F
:100CA0003068C005F6D55A4EA0686C3601280FD0C2
:100CB0000528306810D020F001003060306820F046
:100CC00004003060A068B8B1FFF75EFD00900FE04F
:100CD000306840F00100F4E740F004003060F7E7CE
:100CE000FFF752FD0099411A41F28830814266D8DF
:100CF00030688007F4D50EE0FFF746FD009007E06E
:100D0000FFF742FD0099411A41F28830814256D8DE
:100D100030688007F4D42FB1DBF8001021F0805147
:100D2000CBF80010A069C8B33949091D0968C1F39F
:100D3000810102294AD00228504607D0C8F8600035
:100D400000E03CE0FFF720FD04463BE04746C8F8E2
:100D50006000FFF719FD064605E000BFFFF714FD30
:100D6000801B02282BD828688001F7D4D4E907011A
:100D70000843A16A2A4A490802EB0141626A41EA32
:100D80008211084394F82C1040EA0161C9F8001060
:100D900001203866FFF7F8FC044606E036E000BFA5
:100DA000FFF7F2FC001B022809D828688001F7D55C
:100DB0002CE000BFFFF7E8FC001B022802D903204B
:100DC000BDE8F88F28688001F4D41FE00128F7D02F
:100DD000D9F80000E26900F48001914214D1226A3E
:100DE00000F03F0191420FD147F6C071626A0140A5
:100DF000914209D1A26A00F44031914204D1E16AE2
:100E000000F07060884201D00120D9E70020D7E7C8
:100E10000438024000004742800E47420070004004
:100E20000000FFFF10B5401EB0F1807F01D301200C
:100E300010BD4FF0E02460610F21601700F0FBFA55
:100E40000020A06107202061002010BD7047000035
:100E500070B5026804461068D168536910F00F0F2E
:100E600052D003F0010501F490762E435FD0C20703
:100E700005D0CA0503D5E26B42F00102E2634207E6
:100E800005D5DA0703D0E26B42F00202E263820783
:100E900005D5DA0703D0E26B42F00402E2630207F1
:100EA00007D501F020022A4303D0E26B42F008028A
:100EB000E263E26B002A33D0800604D5880602D5AF
:100EC000204600F09FF920684069E16BC0F3801074
:100ED000090700D428B3204600F086F9206841694C
:100EE00049061AD5416921F040014161606BA0B10A
:100EF0001B490165606BFFF71FFA002810D0606B7B
:100F0000016DBDE870400847830610D58B060ED5ED
:100F10002046BDE8704000F075B92046FFF796FF07
:100F200070BD2046FFF792FF0020E06370BD03060E
:100F300006D50B0604D52046BDE8704000F042BA45
:100F40004006F3D54806F1D5D168204621F040018E
:100F5000D160202184F8391000F08FF870BD0000B6
:100F6000D911000870B5040004D094F839000025A8
:100F700010B106E0012070BD84F83850204600F022
:100F800023F8242084F839002068C16821F4005136
:100F9000C160204600F082F92068016921F4904187
:100FA00001612068416921F02A0141612068C1681E
:100FB00041F40051C160E563202084F8390084F8D1
:100FC0003A00002070BD000070B586B006461421BE
:100FD0006846FFF72DF92349306888423FD12248FF
:100FE0000025016841F010010160006800F0100068
:100FF00005901D481438016841F002010160006845
:10100000694600F002000590C02000900220CDE962
:10101000010503200390072004901448FFF7D8FA35
:10102000144C134820604FF00060C4E901054014DF
:10103000C4E903506561A561E561256220466562EA
:10104000FFF75CFA08B1FFF776F9746300221146E6
:101050002520A663FFF706FC2520FFF7F5FB06B069
:1010600070BD0000001001404438024000040240FE
:10107000406402405000002070477047FEE70000C7
:10108000094808B5016841F4800101600068002248
:1010900000F48000009011463A20FFF7E3FBBDE822
:1010A00008403A20FFF7D0BB303802400D4808B561
:1010B000016841F080010160016801F08001009148
:1010C000016841F001010160016801F00101009136
:1010D000016841F002010160006800F00200009028
:1010E00008BD0000303802400C4810B50A490160C4
:1010F0004FF4E1314160002181600C22C160C0E900
:1011000004128161C161FFF72DFF002803D0BDE803
:101110001040FFF710B910BD001001401000002072
:10112000FEE7FFF7C3BC70477047FFF733BB000013
:1011300030B593B030216846FFF77AF814210CA837
:10114000FFF776F81B480025016841F080510160E7
:10115000006800F0805011901748016841F4804108
:1011600001600068022400F480401190012000908A
:10117000000401908001CDE90640082008904FF45A
:10118000A870CDE9090404200B906846FFF79CFC89
:101190000CA90F2081E831004FF4A0500F90E0021D
:1011A000109005210CA8FFF791FBFFF729FC13B065
:1011B00030BD000040380240007000400548016822
:1011C00041F47001016003494FF00060803908600C
:1011D0007047000088ED00E010B5806B0021C185EC
:1011E000C184FFF733FE10BD0168CA6822F4907213
:1011F000CA6001684A6922F001024A61202180F830
:101200003A10704710B590F83A10222901D0022008
:1012100010BD8168B1F5805F11D0016900290168B6
:101220001FD0496801F07F03816A4A1C82620B70FB
:10123000C18D491E0904090CC18518D02BE0026933
:10124000816A002A0268526805D0D2B20A80816A97
:10125000491C8162ECE7C2F308020A80816A891C9A
:10126000F7E74A68816A4B1C83620A70E0E701680D
:10127000CA6822F02002CA600168CA6822F480723B
:10128000CA6001684A6922F001024A61202180F89F
:101290003A10FFF7F1FE002010BD00002DE9F041EB
:1012A000044600680169E26821F44051114301617C
:1012B0002169A068E2690843616911430843216814
:1012C000CA6849F20C639A430243CA6020684169C4
:1012D000A26921F4407111434161E0691927642535
:1012E0003226B0F5004F354A354920684FF00008E6
:1012F00006D0884201D0904236D1FFF797FB35E007
:10130000884201D0904202D1FFF790FB01E0FFF745
:101310007DFB61684A18A0FB070148EB0803FEF754
:101320004FFF0146B0FBF5F00201B1FBF5F06FF0A5
:101330001803584301EB800006EBC000B0FBF5F04A
:1013400000F0F80002EB4002B1FBF5F0584301EB6E
:10135000800006EBC000B0FBF5F000F0070021684C
:1013600010448860BDE8F081FFF750FB61688B0F87
:101370008A00A0FB0701FEF723FF0146B0FBF5F052
:101380006FF01802504301EB800006EB0010B0FB39
:10139000F5F000F0F002B1FBF5F002EB0012B1FB4A
:1013A000F5F06FF01803584301EB800006EB0010D6
:1013B000B0FBF5F000F00F00D1E700000014014091
:1013C0000010014090F83910212901D00220704707
:1013D0008168B1F5805F016A0BD04A1C0262026825
:1013E00009785160C18C491E0904090CC1840ED0D2
:1013F00017E009880268C1F30801516001690029FA
:10140000016A02D0491C0162ECE7891CFBE7016814
:10141000CA6822F08002CA600068C16841F04001D9
:10142000C1600020704700000148FFF711BD0000B7
:1014300010000020FEE70907090E002804DB00F178
:10144000E02080F80014704700F00F0000F1E02069
:1014500080F8141D704702E008C8121F08C1002A56
:10146000FAD170477047002001E001C1121F002A25
:10147000FBD17047FFF796F9FFF75AFEFFF716FE0C
:10148000FFF7FEFDFFF730FEFEE700061016000630
:10149000101600000000000000000102030406070F
:1014A000080900000000010203040000CC14000839
:1014B000000000201000000056140008DC14000892
:1014C00010000020A00400006614000801000000C5
:0C14D00010000000000000000024F400E8
:040000050800018965
:00000001FF
