:020000040800F2
:10000000100400209D010008970C0008950B0008C3
:10001000950C0008A9020008450D0008000000002A
:100020000000000000000000000000009B0C000821
:10003000AB02000800000000990C00089D0C0008AD
:10004000B7010008B7010008B7010008B7010008B0
:10005000B7010008B7010008AD020008B3020008AC
:10006000B9020008BF020008C5020008B701000875
:10007000B7010008B7010008B7010008B701000880
:10008000B7010008B7010008B7010008B701000870
:10009000B7010008B7010008B7010008B701000860
:1000A000B7010008B7010008B7010008B701000850
:1000B000B7010008B7010008B7010008B701000840
:1000C000B7010008B7010008B7010008B701000830
:1000D000B7010008B7010008B7010008B701000820
:1000E000B7010008B7010008B7010008B701000810
:1000F000B7010008B7010008B7010008B701000800
:10010000B7010008B7010008B7010008B7010008EF
:10011000B7010008B7010008B7010008B7010008DF
:10012000B7010008B7010008B7010008B7010008CF
:10013000B7010008B7010008B7010008B7010008BF
:10014000B7010008B7010008B7010008B7010008AF
:10015000B7010008B7010008B7010008B70100089F
:10016000B7010008B7010008B7010008B70100088F
:10017000B7010008B7010008B7010008000000003F
:10018000B7010008B7010008DFF80CD000F07AF8DA
:1001900000480047850D00081004002006488047ED
:1001A00006480047FEE7FEE7FEE7FEE7FEE7FEE75C
:1001B000FEE7FEE7FEE7FEE7290D000889010008DB
:1001C0002DE9F05F0546002092469B46884606468C
:1001D000814640241BE0284641464746224600F01F
:1001E00041F853465A46C01A914110D31146184659
:1001F000224600F028F82D1A67EB01084F462246E8
:100200000120002100F01FF817EB00094E41201ECD
:10021000A4F10104DFDC484631462A464346BDE8E6
:10022000F09FD2B201E000F8012B491EFBD27047CB
:100230000022F6E710B513460A4604461946FFF7B2
:10024000F0FF204610BD202A04DB203A00FA02F11C
:10025000002070479140C2F1200320FA03F31943B4
:1002600090407047202A04DB203A21FA02F0002156
:10027000704721FA02F3D040C2F1200291400843B6
:1002800019467047064C074D06E0E06840F0010350
:1002900094E8070098471034AC42F6D3FFF778FF94
:1002A000A40D0008C40D0008FEE77047012000F00F
:1002B00051B8022000F04EB8042000F04BB80820DE
:1002C00000F048B8102000F045B8000070B50446B2
:1002D00000F032F90546601C02D00448007804445E
:1002E00000F02AF9401BA042FAD370BD00000020A4
:1002F00010B5174C012802D002280ED020E00121B1
:10030000204600F00FF9D8B90121204600F00AF983
:100310000028F9D1012220210CE00221204600F022
:1003200001F968B90221204600F0FCF80028F9D153
:1003300001224021204600F0FAF86420FFF7C6FFB2
:100340002046BDE8104000224FF6FF7100F0EFB8E4
:1003500000100240044910B50A68024202D0086049
:10036000FFF7C6FF10BD0000143C01402DE9F84F17
:1003700000224FF0010803254FF00F0E0B6808FA1A
:1003800002F42340A3426ED14E68012E05D0022E06
:1003900003D0112E01D0122E12D186684FEA420CE2
:1003A00005FA0CF7BE43CF6807FA0CF737438760AE
:1003B0004668A6430C79C4F3001494403443446067
:1003C000C668570005FA07FC8C6826EA0C06BC4094
:1003D0003443C4604C68022C01D0122C13D1D408D1
:1003E00000EB8404A346D4F8209054074FEAD46A63
:1003F0000EFA0AF629EA06090E6906FA0AF646EA2C
:100400000906CBF8206006680C7926EA0C0604F091
:100410000304BC40344304604C68E40065D5364CAA
:10042000266846F480462660246822F0030604F419
:1004300080440094314C3444A446D4F808489607CC
:10044000370F0EFA07F6B4432D4EB04201D1002605
:1004500024E02C4EB04201D101261FE02A4EB042CA
:1004600002D102261AE040E0284EB04201D1032614
:1004700014E0274EB04201D104260FE0254EB042D1
:1004800001D105260AE0244EB04201D1062605E03E
:10049000224EB04201D1072600E00826BE40264386
:1004A000CCF808681E4E34684F689C43FF0300D5A3
:1004B0001C4334601A4C241D26684F689E43BF03BA
:1004C00000D51E432660164E083634684F689C439C
:1004D000FF0200D51C433460114E0C3634684F685F
:1004E0009C43BF0200D51C433460521C102AFFF409
:1004F00045AFBDE8F88F00004438024000300140AD
:10050000000002400004024000080240000C0240CB
:10051000001002400014024000180240001C02407B
:10052000003C01400069084000D0012070470AB13A
:10053000816170470904FBE701488068704700004B
:1005400000000020024881680278114481607047F1
:10055000000000200B4810B5016841F400710160F3
:10056000016841F480610160016841F480710160BB
:10057000032000F071F8002000F006F800F024F8E5
:10058000002010BD003C024070B50D4D04464FF4F4
:100590007A712878B1FBF0F00A490968B1FBF0F0F4
:1005A00000F0E4FA48B9102C07D200222146501E70
:1005B00000F032F800206C6070BD012070BD0000BA
:1005C000000000200C0000200B4882B0016841F4BC
:1005D00080410160006800F4804000900648001FE0
:1005E000016841F080510160006800F08050009087
:1005F000052002B000F030B844380240002809DB82
:1006000000F01F02012191404009800000F1E0202C
:10061000C0F8001170470000F0B40E4B1B680C4688
:10062000C3F30223C3F10705042D00D90425191DC6
:10063000072901D2002300E0DB1E012606FA05F19E
:10064000491E214099409E40761E16403143F0BC21
:1006500000F079BB0CED00E0064900F007020868E5
:100660004FF6FF03184040EA0220034A1043086097
:10067000704700000CED00E00000FA052DE9F0479E
:100680000E46050065D0DFF81481D8F80000F7B2F7
:1006900000F00F00B04207D288F80070D8F80000D0
:1006A00000F00F00B04254D128683D4C810712D5AC
:1006B000400703D5206840F4E05020602878000708
:1006C00003D5206840F4604020602068A96820F0CD
:1006D000F000084320602878C0072DD030496868B2
:1006E0000839012812D0022813D0032811D0096834
:1006F000890700292DDA216821F0030101432160D7
:10070000FFF71AFF814641F2883A0EE00968890333
:10071000EFE709688901ECE7FFF70EFFA0EB09019D
:10072000514502D90320BDE8F0872068696800F0D0
:100730000C00B0EB810FEFD1D8F80010404601F06B
:100740000F01B14207D90770006800F00F00B042F6
:1007500001D00120E7E72878400705D52068E9683F
:1007600020F4E050084320602878000706D5206870
:10077000296920F4604040EAC100206000F018F8C8
:100780002168084AC1F30311515CC840064908605A
:1007900006480068FFF7F8FE0020C4E7003C02406E
:1007A00008380240920D00080C00002004000020D0
:1007B000154810B5006810F00C02144813D0411011
:1007C000042A0FD0082A0ED10F4C241F2268236858
:1007D00002F03F025B0207D52068C0F38810A0FB3F
:1007E000010106E0084610BD2168C1F38811A1FB94
:1007F00000010023FFF7E4FC2168C1F30141491C1B
:100800004900B0FBF1F010BD083802400024F400AC
:100810002DE9F84F04006ED02078DFF83C93C00734
:10082000A9F104054AD009F104000168C1F381016E
:10083000012908D00068C0F3810002280AD1D9F844
:100840000000400206D52868800337D5606800287C
:10085000E1D033E06068B0F5803F10D0B0F5A02F54
:10086000286810D020F480302860286820F4802088
:1008700028606068A8B1FFF75FFE06460DE02868B3
:1008800040F48030F4E740F480202860F7E700BFB0
:10089000FFF752FE801B642873D828688003F7D5C1
:1008A0000CE0FFF749FE064605E000BFFFF744FEF7
:1008B000801B6428F0D828688003F7D42078DFF8FC
:1008C0009C8280074FF0000A3ED5A348001D0168B6
:1008D00011F00C0F08D00068C0F3810002280BD182
:1008E000D9F80000400207D42868800716D5E068D0
:1008F000012800D112E02BE1E068B8B10120C8F86E
:100900000000FFF719FE064605E000BFFFF714FEE2
:10091000801B0228C0D828688007F7D5286821697D
:1009200020F0F80040EAC10028600DE0C8F800A0FF
:10093000FFF702FE064604E0FFF7FEFD801B0228DB
:100940001FD828688007F7D42078000722D5824E68
:1009500083486169703671B101210160FFF7ECFDD8
:10096000074604E0FFF7E8FDC01B022809D83068FD
:100970008007F7D50EE0C0F800A0FFF7DDFD0746C1
:1009800005E082E0FFF7D8FDC01B02287DD8306863
:100990008007F7D42078400768D5DFF8BCB100277E
:1009A0000BF13C0BDBF80000C0000BD4DBF80010AF
:1009B00041F08051CBF80010DBF80000012700F077
:1009C00080500090674E3068C00510D4306840F405
:1009D00080703060FFF7B0FD009005E0FFF7ACFDE0
:1009E0000099401A022850D83068C005F6D55A4EF2
:1009F000A0686C3601280FD00528306810D020F090
:100A000001003060306820F004003060A068B8B1A8
:100A1000FFF792FD00900FE0306840F00100F4E72E
:100A200040F004003060F7E7FFF786FD0099411AB7
:100A300041F28830814266D830688007F4D50EE0F4
:100A4000FFF77AFD009007E0FFF776FD0099411A65
:100A500041F28830814256D830688007F4D42FB1F3
:100A6000DBF8001021F08051CBF80010A069C8B36A
:100A70003949091D0968C1F3810102294AD00228B8
:100A8000504607D0C8F8600000E03CE0FFF754FD96
:100A900004463BE04746C8F86000FFF74DFD0646B8
:100AA00005E000BFFFF748FD801B02282BD828680F
:100AB0008001F7D4D4E907010843A16A2A4A49080A
:100AC00002EB0141626A41EA8211084394F82C105A
:100AD00040EA0161C9F8001001203866FFF72CFDDB
:100AE000044606E036E000BFFFF726FD001B0228A3
:100AF00009D828688001F7D52CE000BFFFF71CFD5E
:100B0000001B022802D90320BDE8F88F2868800165
:100B1000F4D41FE00128F7D0D9F80000E26900F40E
:100B20008001914214D1226A00F03F0191420FD11D
:100B300047F6C071626A0140914209D1A26A00F48D
:100B40004031914204D1E16A00F07060884201D0E6
:100B50000120D9E70020D7E70438024000004742CF
:100B6000800E4742007000400000FFFF10B5401E9D
:100B7000B0F1807F01D3012010BD4FF0E02460610F
:100B80000F21601700F0DFF80020A061072020612E
:100B9000002010BDFEE700002DE9F04387B01421CE
:100BA0006846FFF745FB37480025016841F0100112
:100BB0000160016801F010010591016841F08001B8
:100BC0000160016801F080010591016841F00101B7
:100BD00001600068DFF8B08000F00100059000229D
:100BE00060214046FFF7A3FCDFF8A0904FF40077A8
:100BF000002239464846FFF79AFC1F2000902448FF
:100C00000124CDE9010469464046FFF7AFFB6020AF
:100C100003268DE8710069464046FFF7A7FB01AA4D
:100C2000009782E8700069464846FFF79FFB002264
:100C300001210620FFF7F0FC0620FFF7DFFC012270
:100C400011460720FFF7E8FC0720FFF7D7FC022238
:100C500001210820FFF7E0FC0820FFF7CFFC00226D
:100C600002210920FFF7D8FC0920FFF7C7FC00226A
:100C700003210A20FFF7D0FC0A20FFF7BFFC07B0D2
:100C8000BDE8F0833038024000100240001C0240F2
:100C900000002110FEE7704770477047FFF752BC15
:100CA00030B593B030216846FFF7C2FA14210CA882
:100CB000FFF7BEFA1A480025016841F08051016033
:100CC000006800F0805011901648016841F480419E
:100CD00001600068022400F480401190012000901F
:100CE000000401908001CDE90640082008904FF4EF
:100CF000A870CDE9090404200B906846FFF788FD31
:100D00000CA90F2081E831004FF4A0500F90E002B1
:100D1000109005210CA8FFF7B1FC13B030BD000006
:100D200040380240007000400548016841F47001FD
:100D3000016003494FF0006080390860704700008F
:100D400088ED00E0FEE70907090E002804DB00F14A
:100D5000E02080F80014704700F00F0000F1E02060
:100D600080F8141D704702E008C8121F08C1002A4D
:100D7000FAD170477047002001E001C1121F002A1C
:100D8000FBD17047FFF7E6FBFFF78AFFFFF704FF91
:100D9000FEE7000000000000000001020304060757
:100DA00008090000C40D0008000000201000000029
:100DB000660D0008D40D000810000020000400009B
:100DC000760D000801000000100000000000000087
:040DD0000024F40007
:040000050800018965
:00000001FF
